Showing Msg: 911f97c99d6f849b18428a23a07c4c4b7f6cbedab346558abdf88404e1fc977d
{
    "hash": "911f97c99d6f849b18428a23a07c4c4b7f6cbedab346558abdf88404e1fc977d",
    "msgname": 5,
    "obj": {
        "buyerid": "dd829fbad2789e4dce9a40dccbcd1e334fd44cc74f531ac36b1bba6b7bce670d",
        "orderhash": "a6542c6345f3123bbbc1bad5210eeb4cf237f6e93daaf780ed05f1738161c575",
        "prevtx": [
            {
                "redeemScript": "5221023e5024192f82300470568fbd1d3fdd8ccf82f6b71a67afbe641eff7661e749a12102be3c8de123fbbba538b1fda2514a021342d30d1936670dc1d1094497018c2b7252ae",
                "scriptPubKey": "a91450d96f356e7d5492164893af88f216d618330bc087",
                "txid": "cc107206fade04670c3fbd989c8404efe7e38329bad55f8b0ae8fc6a3cec8857",
                "vout": 0
            }
        ],
        "refundtx": "01000000015788ec3c6afce80a8b5fd5ba2983e3e7ef04849c98bd3f0c6704defa067210cc000000009200483045022100d1f46ad026df663585cd4499adf827875abcc52f32fc9b11112b7c5eee37703f022036444180a64515074b2fcdda47689092645904e2c7c7b92a8f8f1ad16cdc14ac01475221023e5024192f82300470568fbd1d3fdd8ccf82f6b71a67afbe641eff7661e749a12102be3c8de123fbbba538b1fda2514a021342d30d1936670dc1d1094497018c2b7252ae0000000001301b0f00000000001976a91406245119eb453eae3aba4ce557d458f70333fc6088ac43023354",
        "vendorid": "4e75bc51e258f84b4b7804c5e85faf4122b68864fe051c7b49bcbc82d3d69516"
    },
    "sig": "IL5VcuEkJ/izimDPbscMPBaSyyN5yBhIoXk2xvfSmnHTdtKBLk/gCtB0BLqnddOnyNki8HavrHfqo+zttBNlu3c="
}
