Showing Msg: 0010bdc8d13136c9fb033afa93e271e9c861f6094e7a97647cf56516c162b295
{
    "hash": "0010bdc8d13136c9fb033afa93e271e9c861f6094e7a97647cf56516c162b295",
    "msgname": 7,
    "obj": {
        "buyerid": "dd829fbad2789e4dce9a40dccbcd1e334fd44cc74f531ac36b1bba6b7bce670d",
        "finaltx": "01000000015788ec3c6afce80a8b5fd5ba2983e3e7ef04849c98bd3f0c6704defa067210cc0000000092004830450221009836d1484eb9a7d7545205cc2f6bd49a2ff1c53ee43bdbce60c1f7688ca971a202206cff23847a2347e4c1b8cc21b46a8e03780110cfb4c9f54dad8134348eb288d101475221023e5024192f82300470568fbd1d3fdd8ccf82f6b71a67afbe641eff7661e749a12102be3c8de123fbbba538b1fda2514a021342d30d1936670dc1d1094497018c2b7252aeffffffff01301b0f00000000001976a9141e8b47a1ae8bd264a66c249bbb5cb15b917f9a8188ac00000000",
        "payhash": "9a95d885560b0f2b136157ec1d552dae06254016db18ee15385c14e39bdb290b",
        "prevtx": [
            {
                "redeemScript": "5221023e5024192f82300470568fbd1d3fdd8ccf82f6b71a67afbe641eff7661e749a12102be3c8de123fbbba538b1fda2514a021342d30d1936670dc1d1094497018c2b7252ae",
                "scriptPubKey": "a91450d96f356e7d5492164893af88f216d618330bc087",
                "txid": "cc107206fade04670c3fbd989c8404efe7e38329bad55f8b0ae8fc6a3cec8857",
                "vout": 0
            }
        ],
        "vendorid": "4e75bc51e258f84b4b7804c5e85faf4122b68864fe051c7b49bcbc82d3d69516"
    },
    "sig": "INylO6iQdgiqigL3++fJjnzmt4Dmapa/5VE9tK1zHxsiDnsQMzzpLgtw2Lcb8+Fe+xG0zhEFqoJReBS1kHWUFis="
}
